:1010BE00EF1FAC0670011E4C600A7D027CEFDCFE59
:0410CE00DDFC80ECD9
:0110D20022FB
:100A9D007534FF7590FFC2932097147F0A7E001264
:100AAD0010BE3097FD7F0A7E001210BEE4F5342093
:100ABD0096147F0A7E001210BE3096FD7F0A7E00CE
:100ACD001210BE7534042095147F0A7E001210BEDC
:100ADD003095FD7F0A7E001210BE753408209414E7
:100AED007F0A7E001210BE3094FD7F0A7E00121028
:100AFD00BE75340C7590FFC2922097147F0A7E004C
:100B0D001210BE3097FD7F0A7E001210BE753401A3
:100B1D002096147F0A7E001210BE3096FD7F0A7E4D
:100B2D00001210BE7534052095147F0A7E00121038
:100B3D00BE3095FD7F0A7E001210BE7534092094DB
:100B4D00147F0A7E001210BE3094FD7F0A7E0012C3
:100B5D0010BE75340D7590FFC2912097147F0A7EDB
:100B6D00001210BE3097FD7F0A7E001210BE753444
:100B7D00022096147F0A7E001210BE3096FD7F0A69
:100B8D007E001210BE7534062095147F0A7E001269
:100B9D0010BE3095FD7F0A7E001210BE75340A20FE
:100BAD0094147F0A7E001210BE3094FD7F0A7E00E1
:100BBD001210BE75340E7590FFC2902097147F0AE7
:100BCD007E001210BE3097FD7F0A7E001210BE759A
:100BDD0034032096147F0A7E001210BE3096FD7FDE
:100BED000A7E001210BE7534072095147F0A7E0010
:100BFD001210BE3095FD7F0A7E001210BE75340BAB
:100C0D002094147F0A7E001210BE3094FD7F0A7E60
:090C1D00001210BE75340FAF3453
:010C260022AB
:100C27001210E8120A9D8F2FE5237044E524B407BC
:100C370000503D900C41F8282873020C56020C5BBB
:100C4700020C60020C65020C6F020C74020C6A1233
:100C5700109E801C1210208017120FB78012120EE0
:100C6700BB800D120EFD8008120F3B8003120F7917
:100C7700120E658E328F337C007D64120A048F2C2E
:100C8700AE32AF337C007D64120A047E007F0ACF48
:100C9700CDCFCECCCE120A048F2DAE32AF337C002F
:100CA7007D0A120A048D2E7B007A007927120CC167
:0A0CB7007F057E001210BE020C2A19
:100FEF0011083F065B4F666D7D077F6F777C585EFC
:030FFF0079710005
:060CC1008B348A358936F0
:100CC700753703E4F538F53953B08FAB34AA35A936
:100CD700368539828538831209C52408F8E6F580F8
:100CE700E537C454F042B07F037E001210BE1537BB
:100CF7000539E53970020538C39404E538648094F2
:100D07008040C575370775380075390453B08FAB08
:100D170034AA35A9368539828538831209C524084E
:100D2700F8E6F580E537C454F042B07F037E001241
:100D370010BE15370539E53970020538C39408E543
:070D4700386480948040C570
:010D4E002282
:101002000223000002300000022100000225001429
:0D101200012FFF0827110000000000000062
:0E10E800758901758C3C758AB0D2A9D2AF22F1
:0C10F600E4FF7E0878277411F608DEFC89
:0111020022CA
:10109E001210F6752500752614E4F530F531F5219C
:1010AE00F522C28CE52FB40A0675230075240122A1
:101020001210F6E52FF46028E52FC3940A5017E557
:101030002FC394004010753000852F3185312975FC
:10104000230075240222E52FB40D05E4F523F524D1
:01105000227D
:100FB7001210F6AF318F29E52FF4602BE52FD3946C
:100FC70006501AE52FC394004013E52F752100F54D
:100FD700228F2885222975230075240322E52FB443
:080FE7000D05E4F523F52422B9
:100EBB001210F6853128852229E52FF46033E52FB2
:100ECB00C3940A5022E52FC39400401BAE21AF22DE
:100EDB007C007D0A1209F2EF252FF522EC3EF5215D
:100EEB0075230075240622E52FB40D05E4F523F5D3
:020EFB002422AF
:100EFD001210F6853127AE21AF227C007D0A120A31
:100F0D00048F28AE21AF227C007D0A120A048D29A0
:100F1D00E52FF46018E52FB40B09D28C75230075FD
:0E0F2D00240422E52FB40D05E4F523F524225B
:100F3B001210F6853127AE21AF227C007D0A120AF2
:100F4B00048F28AE21AF227C007D0A120A048D2962
:100F5B00E52FF46018E52FB40C09C28C75230075CE
:0E0F6B00240522E52FB40D05E4F523F524221C
:100F79001210F6853127AE21AF227C007D0A120AB4
:100F8900048F28AE21AF227C007D0A120A048D2924
:100F9900E52FF46018E52FB40B09D28C7523007581
:0E0FA900240422E52FB40D05E4F523F52422DF
:03000B00020DDB08
:100DDB00C0E0C0F0C083C082C0D075D000C000C0DE
:100DEB0001C002C003C004C005C006C007E526153C
:100DFB002670021525E5264525703EE52215227045
:100E0B00021521C3E521648094805027752100755C
:100E1B00223BE531153170021530C3E53064809407
:100E2B00805010C28C752300752400E4FFFE121055
:100E3B00BE800C752500752614758C3C758AB0D058
:100E4B0007D006D005D004D003D002D001D000D0FB
:0A0E5B00D0D082D083D0F0D0E03276
:0A110300EFD394004004001F80F6B3
:01110D0022BF
:1010D300D2E87F0A121103C2E87F3C121103D2E85F
:0510E3007F180211035B
:02105100AE07E8
:101053007D08EE30E00DC2E80000D2E87F061211F1
:1010630003800BC2E87F06121103D2E80000EEC32F
:0910730013FEDDDE7F0302110310
:10107C00E4FD7E08C2E80000D2E8EDC313FDA2E84F
:10108C00920030E8034305807F06121103DEE5AFC2
:01109C00054E
:01109D002230
:100E65001210D37FCC1210517F441210511210D39F
:100E75007FCC1210517FBE12105112107CAC07129C
:100E8500107CEFFEAD04EDFFEE44F8FCE4B5051172
:100E9500ECB4F80DEFF4FFEEF4FEEF2401FFE43EB1
:100EA500FEAD07AC06EC12090BE4FBFA7920783F9E
:060EB500120800020944CE
:10080000EC4D6011E8497017ED33EC3304600DE4F2
:10081000FCFFFEFD22E933E8330470F80209B01250
:10082000097B58046009E4CC248150062850090251
:1008300009BA2840030209B7C0E0EB4A7044B98006
:1008400006D0E0FB0209A6EF4E701CBD8008EBFF4E
:10085000EAFEE9FD80EBE98DF0A4FEE5F00208E98F
:10086000E9CDF9EAFEEBFFEF89F0A4FCE5F0CE89D3
:10087000F0A42EFFE435F0CD89F0A42DFEE435F090
:100880008067EF4E7005BD80D780C3EF8BF0A4ACBE
:10089000F0EE8BF0A42CFCE435F0F8EF8AF0A42CF9
:1008A000E5F038FCE433CB8DF0A42CFCE5F03BF80C
:1008B000EE8AF0A42CFCE5F038F8E433CF89F0A4FC
:1008C0002CFCE5F038CF3400CE89F0A42FFFE5F002
:1008D0003EFEE433C98DF0A42EFEE5F039CD8AF05A
:1008E000A42FFFE5F03EFEE43DFD33D0E0FB5007D2
:1008F0000BBB000F0209BAEC2CFCEF33FFEE33FE0A
:06090000ED33FD02099237
:1009060075F020800E75F010800575F0087D007E6C
:10091600007F003392D530D503120A3AEC334010EB
:10092600EF33FFEE33FEED33FDEC33FCD5F0ED2275
:0E093600E5F0247EA2D513CC92E7CDCEFF22B1
:10094400EDD2E7CD33EC3392D524814006E4FFFEAB
:10095400FDFC22FCE4CFCECDCC24E0501174FF800A
:10096400EDC3CC13CCCD13CDCE13CECF13CF0470A7
:07097400F030D5DE020A3A63
:10097B00E9D2E7C933E833F892D5EDD2E7CD33ECC2
:07098B0033FC5002B2D5223B
:10099200EC30E7100FBF000C0EBE00080DBD0004C6
:1009A2000BEB6014A2D5EB13FCED92E7FD2274FF72
:1009B200FCFDFEFF22E480F8A2D574FF13FC7D80CB
:0309C200E480EFDF
:03000000020D4F9F
:0C0D4F00787FE4F6D8FD758139020D961E
:1009C500BB010CE58229F582E5833AF583E02250E7
:1009D50006E92582F8E622BBFE06E92582F8E22231
:0D09E500E58229F582E5833AF583E493224B
:1009F200EF8DF0A4A8F0CF8CF0A428CE8DF0A42E19
:020A0200FE22D2
:100A0400C2D5EC30E709B2D5E4C39DFDE49CFCEE0D
:100A140030E715B2D5E4C39FFFE49EFE120A48C333
:100A2400E49DFDE49CFC8003120A4830D507C3E42E
:060A34009FFFE49EFE227C
:0E0A3A00C3E49FFFE49EFEE49DFDE49CFC22CD
:100D5B00020C27E493A3F8E493A34003F68001F27B
:100D6B0008DFF48029E493A3F85407240CC8C33399
:100D7B00C4540F4420C8834004F456800146F6DF68
:100D8B00E4800B0102040810204080900FEFE47EFA
:100D9B00019360BCA3FF543F30E509541FFEE4935D
:100DAB00A360010ECF54C025E060A840B8E493A324
:100DBB00FAE493A3F8E493A3C8C582C8CAC583CA4F
:100DCB00F0A3C8C582C8CAC583CADFE9DEE780BE07
:01101F0000D0
:100A4800BC000BBE0029EF8DF084FFADF022E4CC92
:100A5800F875F008EF2FFFEE33FEEC33FCEE9DEC5B
:100A6800984005FCEE9DFE0FD5F0E9E4CEFD22EDA1
:100A7800F8F5F0EE8420D21CFEADF075F008EF2FEB
:100A8800FFED33FD4007985006D5F0F222C398FDDC
:050A98000FD5F0EA2279
:00000001FF
