:10100F00EF1FAC0670011E4C600A7D027CEFDCFE08
:04101F00DDFC80EC88
:0110230022AA
:100EAD0053073FEFC394004007EFD3940350012243
:100EBD00EFC39408400CEFD3940B5006C3EF94048A
:100ECD00FF22EFC39410400CEFD394135006C3EFE1
:0A0EDD009408FF22C3EF940CFF22DB
:08106C00AF427542FF020EAD18
:100A9D001210391210547F037E04120FF17F007E65
:100AAD0005120FF112106C8F16E50A7044E50BB4A8
:100ABD000700503D900AC8F8282873020ADD020A83
:100ACD00E2020AE7020AEC020AF6020AFB020AF146
:100ADD00120FD1801C120F538017120EE7801212C5
:100AED000DB1800D120DF38008120E318003120E20
:100AFD006F120CCF8E198F1A7C007D64120A048F31
:100B0D0013AE19AF1A7C007D64120A047E007F0AB1
:100B1D00CFCDCFCECCCE120A048F14AE19AF1A7C26
:100B2D00007D0A120A048D157B007A00790E120CD5
:0B0B3D005E7F057E0012100F020AB15F
:100D250011213F065B4F666D7D077F6F777C585EAF
:100D350079710010320F000E000D000C000B000A37
:050D4500000900080098
:060C5E008B1B8A1C891D9E
:100C6400E4F51EF51FE51F6406451EAB1BAA1CA96F
:100C74001D7022851F82851E831209C52421F8E672
:100C8400FFE51F25E02432F8E6FC08E6FDECFEEF64
:100C94004D4480801E851F82851E831209C5242130
:100CA400F8E6FFE51F25E02432F8E6FC08E6FDEC53
:100CB400FEEF4DFF120FF1051FE51F7002051EC365
:0A0CC4009408E51E64809480409BB4
:010CCE002203
:100D4A00020A00000217000002080000020C001448
:0D0D5A000116FF080E11000000000000004F
:0E103900758901758C3C758AB0D2A9D2AF22A0
:0C104700E4FF7E08780E7411F608DEFC51
:01105300227A
:100FD100121047750C00750D14E4F517F518F50896
:100FE100F509C28CE516B40A06750A00750B0122D3
:100F5300121047E516F46028E516C3940A5017E506
:100F630016C3940040107517008516188518107560
:100F73000A00750B0222E516B40D05E4F50AF50B1C
:010F8300224B
:100EE700121047AF188F10E516F4602BE516D39450
:100EF70006501AE516C394004013E516750800F569
:100F0700098F0F850910750A00750B0322E516B4C2
:080F17000D05E4F50AF50B22BB
:100DB10012104785180F850910E516F46033E51602
:100DC100C3940A5022E516C39400401BAE08AF0934
:100DD1007C007D0A1209F2EF2516F509EC3EF508B3
:100DE100750A00750B0622E516B40D05E4F50AF542
:020DF1000B22D3
:100DF30012104785180EAE08AF097C007D0A120A4F
:100E0300048F0FAE08AF097C007D0A120A048D100F
:100E1300E516F46018E516B40B09D28C750A007553
:0E0E23000B0422E516B40D05E4F50AF50B22CA
:100E310012104785180EAE08AF097C007D0A120A10
:100E4100048F0FAE08AF097C007D0A120A048D10D1
:100E5100E516F46018E516B40C09C28C750A007524
:0E0E61000B0522E516B40D05E4F50AF50B228B
:100E6F0012104785180EAE08AF097C007D0A120AD2
:100E7F00048F0FAE08AF097C007D0A120A048D1093
:100E8F00E516F46018E516B40B09D28C750A0075D7
:0E0E9F000B0422E516B40D05E4F50AF50B224E
:03000B00020BD411
:100BD400C0E0C0F0C083C082C0D075D000C000C0E7
:100BE40001C002C003C004C005C006C007E50D155E
:100BF4000D7002150CE50D450C703EE509150970E4
:100C0400021508C3E50864809480502775080075B0
:100C1400093BE518151870021517C3E5176480948D
:100C2400805010C28C750A00750B00E4FFFE121090
:100C34000F800C750C00750D14758C3C758AB0D042
:100C440007D006D005D004D003D002D001D000D004
:0A0C5400D0D082D083D0F0D0E0327F
:0A106100EFD394004004001F80F656
:01106B002262
:10102400D2E87F0A121061C2E87F3C121061D2E854
:051034007F18021061AD
:020F8400AE07B6
:100F86007D08EE30E00DC2E80000D2E87F061210C0
:100F960061800BC2E87F06121061D2E80000EEC342
:090FA60013FEDDDE7F0302106181
:100FAF00E4FD7E08C2E80000D2E8EDC313FDA2E81D
:100FBF00920030E8034305807F06121061DEE5AF33
:010FCF00051C
:010FD00022FE
:100CCF001210247FCC120F847F44120F8412102431
:100CDF007FCC120F847FBE120F84120FAFAC07129E
:100CEF000FAFEFFEAD04EDFFEE44F8FCE4B50511D8
:100CFF00ECB4F80DEFF4FFEEF4FEEF2401FFE43E49
:100D0F00FEAD07AC06EC12090BE4FBFA7920783F35
:060D1F0012080002094465
:030D67000142FF47
:0D105400C293D293C28AC28BC2BAD2AA2222
:100FF100C2AAC292E4FDEF139293C294EEC313FE10
:0D100100EF13FFD2940DBD0CEDD292D2AAD8
:01100E0022BF
:100F1F00C2AA7F07C292E4FEEF139293C294EFC36B
:100F2F0013FFD2940EBE04F0D292E4FFFEEF25E041
:100F3F00FFA2B3E4334207C294D2940EBE07EEC2AF
:030F4F008BD2AA98
:010F5200227C
:03001300020D6B70
:0B0D6B00C0E0C0D075D000C006C0077B
:100D76007F07C292E4FEEF139293C294EFC313FF70
:100D8600D2940EBE04F0D292E4FFFEEF25E0FFA25D
:100D9600B3E4334207C294D2940EBE07EE8F427577
:020DA600A800A3
:090DA800D007D006D0D0D0E03213
:10080000EC4D6011E8497017ED33EC3304600DE4F2
:10081000FCFFFEFD22E933E8330470F80209B01250
:10082000097B58046009E4CC248150062850090251
:1008300009BA2840030209B7C0E0EB4A7044B98006
:1008400006D0E0FB0209A6EF4E701CBD8008EBFF4E
:10085000EAFEE9FD80EBE98DF0A4FEE5F00208E98F
:10086000E9CDF9EAFEEBFFEF89F0A4FCE5F0CE89D3
:10087000F0A42EFFE435F0CD89F0A42DFEE435F090
:100880008067EF4E7005BD80D780C3EF8BF0A4ACBE
:10089000F0EE8BF0A42CFCE435F0F8EF8AF0A42CF9
:1008A000E5F038FCE433CB8DF0A42CFCE5F03BF80C
:1008B000EE8AF0A42CFCE5F038F8E433CF89F0A4FC
:1008C0002CFCE5F038CF3400CE89F0A42FFFE5F002
:1008D0003EFEE433C98DF0A42EFEE5F039CD8AF05A
:1008E000A42FFFE5F03EFEE43DFD33D0E0FB5007D2
:1008F0000BBB000F0209BAEC2CFCEF33FFEE33FE0A
:06090000ED33FD02099237
:1009060075F020800E75F010800575F0087D007E6C
:10091600007F003392D530D503120A3AEC334010EB
:10092600EF33FFEE33FEED33FDEC33FCD5F0ED2275
:0E093600E5F0247EA2D513CC92E7CDCEFF22B1
:10094400EDD2E7CD33EC3392D524814006E4FFFEAB
:10095400FDFC22FCE4CFCECDCC24E0501174FF800A
:10096400EDC3CC13CCCD13CDCE13CECF13CF0470A7
:07097400F030D5DE020A3A63
:10097B00E9D2E7C933E833F892D5EDD2E7CD33ECC2
:07098B0033FC5002B2D5223B
:10099200EC30E7100FBF000C0EBE00080DBD0004C6
:1009A2000BEB6014A2D5EB13FCED92E7FD2274FF72
:1009B200FCFDFEFF22E480F8A2D574FF13FC7D80CB
:0309C200E480EFDF
:03000000020B48A8
:0C0B4800787FE4F6D8FD758142020B8F27
:1009C500BB010CE58229F582E5833AF583E02250E7
:1009D50006E92582F8E622BBFE06E92582F8E22231
:0D09E500E58229F582E5833AF583E493224B
:1009F200EF8DF0A4A8F0CF8CF0A428CE8DF0A42E19
:020A0200FE22D2
:100A0400C2D5EC30E709B2D5E4C39DFDE49CFCEE0D
:100A140030E715B2D5E4C39FFFE49EFE120A48C333
:100A2400E49DFDE49CFC8003120A4830D507C3E42E
:060A34009FFFE49EFE227C
:0E0A3A00C3E49FFFE49EFEE49DFDE49CFC22CD
:100B5400020A9DE493A3F8E493A34003F68001F210
:100B640008DFF48029E493A3F85407240CC8C333A2
:100B7400C4540F4420C8834004F456800146F6DF71
:100B8400E4800B0102040810204080900D25E47ECF
:100B9400019360BCA3FF543F30E509541FFEE49366
:100BA400A360010ECF54C025E060A840B8E493A32D
:100BB400FAE493A3F8E493A3C8C582C8CAC583CA58
:100BC400F0A3C8C582C8CAC583CADFE9DEE780BE10
:010D6A000088
:100A4800BC000BBE0029EF8DF084FFADF022E4CC92
:100A5800F875F008EF2FFFEE33FEEC33FCEE9DEC5B
:100A6800984005FCEE9DFE0FD5F0E9E4CEFD22EDA1
:100A7800F8F5F0EE8420D21CFEADF075F008EF2FEB
:100A8800FFED33FD4007985006D5F0F222C398FDDC
:050A98000FD5F0EA2279
:00000001FF
